:10083200758920758DFD758BFDD28ED29CC29FD29B
:060842009ED2AFD2AC22F1
:100800001208321208D6E50824CF601214601414BE
:100810006016146018240470ED1208E880E81208CD
:10082000DF80E31208CC80DE1208B280D91208A360
:0208300080D472
:0300230002085E72
:10085E00309807C298859908D200309904C299C27F
:02086E00013255
:0908D600C290C295C285C28022C5
:10087000BF0107D290C291D29222D290D291C2925D
:010880002255
:050848007F01120870A1
:10084D00BF0107D295D293C29422D295C293D2946E
:01085D002278
:10088100BF0107D285C283D28422D285D283C2849A
:010891002244
:10089200BF0107D280C281D28222D280D281C2829B
:0108A2002233
:0908DF0012084812088102089277
:0E08B200E4FF12087012084D1208810208922D
:0F08A300E4FF12087012084D0F1208810208922C
:0A08CC001208481F1208810208926A
:0308E8000208D62D
:030000000208C033
:0C08C000787FE4F6D8FD75812002080066
:00000001FF
